:100000000C942A000C943F000C943F000C943F0089
:100010000C943F000C943F000C943F000C943F0064
:100020000C943F000C943F000C943F000C943F0054
:100030000C943F000C943F000C943F000C943F0044
:100040000C943F000C943F000C943F000C943F0034
:100050000C943F0011241FBECFE5D8E0DEBFCDBF1A
:1000600010E0A0E6B0E0E6E3F9E002C005900D92F2
:10007000AE3EB107D9F70E94F4020C9499040C9497
:100080000000CF93C82F40E060E081E00E94A00113
:100090006C2F82E00E94ED0041E060E082E00E946F
:1000A000A00189EF90E00197F1F700C0000040E067
:1000B00060E082E00E94A00189EF90E00197F1F7F3
:1000C00000C00000CF9108956FEF82E00E94D7003A
:1000D00041E060E081E00E94030141E060E082E0F5
:1000E0000E94030183ED90E30197F1F700C0000047
:1000F00088E30E9441008CE00E94410081E00E9460
:10010000410089EF90E00197F1F700C0000086E020
:100110000E9441000895CF93C82F41E060E081E044
:100120000E94A0016C2F82E00E94ED0041E060E09F
:1001300082E00E94A00189EF90E00197F1F700C0F2
:10014000000040E060E082E00E94A00189EF90E0C2
:100150000197F1F700C00000CF9108950E948B0035
:100160000895815019F0813031F008958FE7860F9E
:100170000E94410008958FEB860F0E944100089570
:100180000F931F93CF938C01C0E003C00E948B009C
:10019000CF5FF801EC0FF11D80818111F7CFCF9176
:1001A0001F910F91089581E00E94410008958130D0
:1001B00049F028F0823049F0833051F00CC06ABB1E
:1001C00080E0089567BB80E0089564BB80E00895F7
:1001D00061BB80E0089581E00895813049F028F006
:1001E000823049F0833051F00CC06BBB80E0089541
:1001F00068BB80E0089565BB80E0089562BB80E045
:10020000089581E00895883008F08EC0613049F18A
:1002100038F0623009F446C0633009F464C086C027
:10022000413071F44AB321E030E0B90102C0660FF9
:10023000771F8A95E2F7CB01842B8ABB80E0089573
:10024000411176C04AB321E030E0B90102C0660F27
:10025000771F8A95E2F7CB01809584238ABB80E0E3
:100260000895413071F447B321E030E0B90102C094
:10027000660F771F8A95E2F7CB01842B87BB80E05E
:100280000895411157C047B321E030E0B90102C0E1
:10029000660F771F8A95E2F7CB018095842387BB91
:1002A00080E00895413071F444B321E030E0B901B9
:1002B00002C0660F771F8A95E2F7CB01842B84BBBF
:1002C00080E00895411138C044B321E030E0B90125
:1002D00002C0660F771F8A95E2F7CB0180958423D1
:1002E00084BB80E00895413071F441B321E030E0F7
:1002F000B90102C0660F771F8A95E2F7CB01842B04
:1003000081BB80E00895411119C041B321E030E084
:10031000B90102C0660F771F8A95E2F7CB0180957D
:10032000842381BB80E0089581E0089581E00895F1
:1003300080E0089580E0089580E0089580E00895C9
:10034000883008F08EC0613049F138F0623009F42D
:1003500046C0633009F464C086C0413071F44BB3C9
:1003600021E030E0B90102C0660F771F8A95E2F7FD
:10037000CB01842B8BBB80E00895411176C04BB339
:1003800021E030E0B90102C0660F771F8A95E2F7DD
:10039000CB01809584238BBB80E00895413071F4BC
:1003A00048B321E030E0B90102C0660F771F8A959B
:1003B000E2F7CB01842B88BB80E00895411157C040
:1003C00048B321E030E0B90102C0660F771F8A957B
:1003D000E2F7CB018095842388BB80E0089541300B
:1003E00071F445B321E030E0B90102C0660F771F18
:1003F0008A95E2F7CB01842B85BB80E008954111FB
:1004000038C045B321E030E0B90102C0660F771F64
:100410008A95E2F7CB018095842385BB80E008951F
:10042000413071F442B321E030E0B90102C0660FFF
:10043000771F8A95E2F7CB01842B82BB80E0089579
:10044000411119C042B321E030E0B90102C0660F8A
:10045000771F8A95E2F7CB018095842382BB80E0E9
:10046000089581E0089581E0089580E0089580E096
:10047000089580E0089580E008956830C0F58130E7
:1004800091F028F08230D9F0833029F132C089B35D
:1004900090E002C0959587956A95E2F78170FA0120
:1004A000808380E0089586B390E002C0959587959B
:1004B0006A95E2F78170FA01808380E0089583B342
:1004C00090E002C0959587956A95E2F78170FA01F0
:1004D000808380E0089580B390E002C09595879571
:1004E0006A95E2F78170FA01808380E0089581E0E7
:1004F000089581E00895CF93C0E007C040E063E035
:1005000084E08C0F0E940301CF5FC430B8F3C0E0D9
:1005100006C041E063E08C2F0E940301CF5FC4302E
:10052000C0F3C0E006C041E063E08C2F0E94A00150
:10053000CF5FC430C0F3C0E007C041E063E084E0B7
:100540008C0F0E94A001CF5FC430B8F3CF91089503
:10055000FF920F931F93CF93DF931F92CDB7DEB718
:100560000F2EF6E6FF2EF02D00E034C040E063E0F1
:10057000802F0E94A00114E025C0AE014F5F5F4FA5
:10058000612F83E00E943D028981811110C0802F7C
:1005900090E0212F30E024503109880F991F880FF7
:1005A000991F805A9F4FFC01E20FF31FF08080B328
:1005B00090E0012E02C0959587950A94E2F780FF9E
:1005C000F6CF1F5F1830C8F241E063E0802F0E9431
:1005D000A0010F5F043050F28F2D0F90DF91CF916B
:1005E0001F910F91FF900895EF92FF920F931F9329
:1005F000CF93DF9341E060E083E00E94030141E09C
:1006000060E084E00E9403010E9464000E947B027B
:100610000E94D3000F2EF0E7EF2EF0E0FF2EF02D1A
:100620001E2D8E2D0E94AE0060E080E00E94B10081
:1006300082E790E00E94C0002FE382E49FE0215017
:1006400080409040E1F700C000000E94D30060E0CD
:1006500080E00E94B1008E2D0E94AE008AE790E0FB
:100660000E94C0000E94A802C82F8636D9F360E01D
:1006700081E00E94B1008C2F0E94AE000E94D30046
:100680002FE382E49FE0215080409040E1F700C0DA
:100690000000C53311F0C733A1F40E94D3008E2DA2
:1006A0000E94AE0089E890E00E94C0002FE78AE136
:1006B00096E0215080409040E1F700C00000D0E07B
:1006C0006BC00E94D300812F0E94AE008AE990E0A7
:1006D0000E94C0002FE382E49FE0215080409040C0
:1006E000E1F700C00000BECF0E94A802082F8636A6
:1006F00009F452C060E081E00E94B1000E94D30082
:10070000802F0E94AE002FE382E49FE021508040C2
:100710009040E1F700C00000063311F4C53321F02A
:10072000083321F5C73311F50E94D30060E080E063
:100730000E94B1008E2D0E94AE0088EA90E00E94D7
:10074000C00060E082E00E94B1008CE20E94AE0036
:1007500080EB90E00E94C0002FE78AE196E02150F4
:1007600080409040E1F700C0000019C0DF5FD33047
:1007700008F0C4C00E94D300812F0E94AE0089E817
:1007800090E00E94C0002FE78AE196E0215080406F
:100790009040E1F700C00000D33008F4A5CF0E94DC
:1007A000A8028636E1F39FEC980F9230C0F70E94C2
:1007B000AE000E94D30060E080E00E94B1008E2D68
:1007C0000E94AE0088EB90E00E94C00060E082E0F2
:1007D0000E94B1008CE20E94AE008EEB90E00E947D
:1007E000C0002FE78AE196E0215080409040E1F779
:1007F00000C000000E94A802D82F8636D9F38FECE3
:100800008D0F8230B8F78D2F0E94AE000E94D3006A
:1008100060E080E00E94B1008E2D0E94AE0084EC6A
:1008200090E00E94C00060E084E00E94B1008CE291
:100830000E94AE0089EC90E00E94C0002FE78AE1A0
:1008400096E0215080409040E1F700C000000E94F7
:10085000A802C82F8636D9F30E94D300D13399F469
:10086000C13389F460E080E00E94B100812F0E94D2
:10087000AE008FEC90E00E94C00041E060E083E0B9
:100880000E94A001E4CFD13399F4C23389F460E02F
:1008900080E00E94B100812F0E94AE0086ED90E0C2
:1008A0000E94C00040E060E083E00E94A001CFCF42
:1008B000D23399F4C13389F460E080E00E94B10042
:1008C000812F0E94AE008EED90E00E94C00041E0BA
:1008D00060E084E00E94A001BACF60E080E00E9466
:1008E000B100812F0E94AE0085EE90E00E94C00012
:1008F00040E060E084E00E94A001A9CF0E94D30004
:100900008E2D0E94AE008AE990E00E94C0002FE385
:1009100082E49FE0215080409040E1F700C0000059
:1009200080E090E0DF91CF911F910F91FF90EF90C9
:060930000895F894FFCFCA
:100936003738392F3435362A3132332D63303D2B53
:10094600200057656C636F6D6500456E7465722097
:10095600596F75722049443A00456E746572207964
:100966006F757220706173733A0053797374656D95
:1009760020436C6F73656400312D526F6F6D3100CB
:10098600322D526F6F6D3200312D4C656400322D61
:1009960046616E00312D4F4E00322D4F4646004CBB
:1009A6006564204F4E004C6564204F464600466104
:0E09B6006E204F4E0046616E204F46460000F8
:00000001FF
